:020000040800F2
:10000000A8C40220C1010008DB38000895300008B0
:10001000D9380008A70600081D520008000000009B
:10002000000000000000000000000000DB4C0008A1
:10003000110800080000000071420008DD4C0008B3
:10004000DB010008DB010008DB010008DB01000820
:10005000DB010008DB010008DB010008DB01000810
:10006000DB010008DB010008DB010008DB01000800
:10007000DB010008DB010008DB010008DB010008F0
:10008000DB010008DB010008DB010008DB010008E0
:10009000DB010008DB010008DB0100081308000891
:1000A000DB010008DB010008DB010008DB010008C0
:1000B000DB010008DB010008A14D0008DB0100089E
:1000C000DB010008DB010008DB010008DB010008A0
:1000D000DB010008A5510008DB010008DB01000876
:1000E000DB010008DB010008DB010008DB01000880
:1000F000DB010008DB010008DB010008DB01000870
:10010000DB010008A5420008DB010008DB01000854
:10011000DB010008DB010008DB010008DB0100084F
:10012000DB010008DB010008DB0100087D07000897
:10013000DB010008DB010008DB010008DB0100082F
:10014000DB010008DB010008DB010008DB0100081F
:10015000DB01000889070008DB010008DB0100085B
:10016000DB010008DB010008DB010008DB010008FF
:10017000DB010008DB010008DB01000800000000D3
:10018000DB010008DB010008DB010008DB010008DF
:10019000DB010008DB010008DB010008DB010008CF
:1001A000DB010008DB010008DB010008DFF80CD0F0
:1001B00000F08CF800480047C9810008A8C402205C
:1001C0000648804706480047FEE7FEE7FEE7FEE7F1
:1001D000FEE7FEE7FEE7FEE7FEE7FEE7854D0008E7
:1001E000AD0100082DE9F05F0546002092469B46D0
:1001F00088460646814640241BE02846414647463D
:10020000224600F053F853465A46C01A914110D383
:1002100011461846224600F03AF82D1A67EB0108FD
:100220004F4622460120002100F031F817EB00096B
:100230004E41201EA4F10104DFDC484631462A4627
:100240004346BDE8F09F40EA01039B0703D009E065
:1002500008C9121F08C0042AFAD203E011F8013BB2
:1002600000F8013B521EF9D27047D2B201E000F80B
:10027000012B491EFBD270470022F6E710B513464A
:100280000A4604461946FFF7F0FF204610BD202A13
:1002900004DB203A00FA02F1002070479140C2F1DD
:1002A000200320FA03F3194390407047202A04DB0F
:1002B000203A21FA02F00021704721FA02F3D040DF
:1002C000C2F120029140084319467047064C074D81
:1002D00006E0E06840F0010394E807009847103416
:1002E000AC42F6D3FFF766FFB4E90808D4E9080882
:1002F00070B58C1810F8015B15F0070301D110F8E8
:10030000013B2A1106D110F8012B03E010F8016B14
:1003100001F8016B5B1EF9D12B0705D40023521E97
:100320000DD401F8013BFAE710F8013BCB1A921CFF
:1003300003E013F8015B01F8015B521EF9D5A142FD
:10034000D8D3002070BD00001CB5044600F05AF858
:10035000034600F047F802460020CDE900040648B5
:10036000064C006800EB800101EBC00104EB810149
:10037000C96D02F0EFFF1CBD14000020DC08002056
:1003800070B5164B06460D461868154C00EB8001FB
:1003900001EBC00004EB8000806C02280ED000F05E
:1003A00021F8196805FB006001EB810303EBC10133
:1003B00004EB8101C96D41F8202070BD00F012F8F6
:1003C000196805FB006001EB810303EBC10104EB3D
:1003D0008101C96D21F8102070BD000014000020BB
:1003E000DC0800200548006800EB800101EBC0003C
:1003F000034901EB8000006E7047000014000020EC
:10040000DC0800200548006800EB800101EBC0001B
:10041000034901EB8000406E70470000140000208B
:10042000DC08002038B500F09BF80A4C01200021C0
:10043000206000F069F8002020604FF4F070002286
:1004400000904FF448731146104600F073F80020F6
:1004500038BD00001400002030B5294D04460B467D
:100460002868284A00EB800101EBC00002EB800005
:10047000806CB0B1012823D0022832D0042830D0BB
:1004800007282ED0FFF7AEFF03FB0040296801EBE1
:10049000810303EBC10102EB8101C96D11F810006A
:1004A00030BDFFF79FFF03FB0040296801EB81038C
:1004B00003EBC10102EB8101C96D51F8100030BDA1
:1004C000FFF790FF03FB0040296801EB810303EB7A
:1004D000C10102EB8101C96D51F8100020F07F408D
:1004E00030BDFFF77FFF03FB0040296801EB81036C
:1004F00003EBC10102EB8101C96D31F8100030BD81
:1005000014000020DC080020094B842202EBC012FA
:1005100018680129815808D021F00101815018681C
:10052000416A41F001014162704741F00101F5E784
:10053000DC0800202DE9F0411F4615460E46044612
:10054000034639460548069A01F096F923462A469D
:100550003146BDE8F041014801F064B9DC080020F3
:1005600004490348086040F2036000F005B8000049
:10057000400100A05C0200202DE9F843204C00253A
:10058000012610270095C4E90067C4E90265814689
:100590004FF6FF7821464246A1F1340001F01EFEDD
:1005A000012000F059FE0220C4E90007C4E90265F9
:1005B00021464246A1F1340001F010FE0320C4E9B7
:1005C00000070820C4E9020521464246A1F1340093
:1005D00001F004FE4FF40C700090C4E902600421A5
:1005E000C4E9001721464246A1F1340001F0F6FDAE
:1005F0004946A4F13400BDE8F84301F0DEBD000037
:1006000090020020704700000146014801F04ABFF7
:100610008409002010B5044801F056FF042801D0D9
:10062000012010BD002010BD8409002038B5012034
:100630008DF800009DF80000012801D0012038BD90
:10064000064802F05BF8040006D14FF4006103484D
:1006500001F0E0FD00B10124204638BD84090020EE
:1006600038B50024009313460A460146034802F0B9
:100670002DF900B10124204638BD00008409002076
:100680007047000038B50024009313460A4601461F
:10069000034802F01FFA00B10124204638BD0000D3
:1006A000840900207047FEE7FA214843401EFDD22E
:1006B0007047000010B50123032486B0012A0BD037
:1006C000002A07D1CDE90013CDE90234694600BF05
:1006D00000F054FE06B010BD009101AA002182E88E
:1006E0001A006946F4E7F0B50468059E656C46EAB1
:1006F000034305F040451D4365640368DA634268BF
:10070000B2F5403F02D00068C160F0BD01F47F4205
:1007100001F47F0C866801F07F4301F47F0701F448
:100720007F45CCB242EA0C02BEB1012E16D001F4D4
:100730007F02D20CC1F3C401022E11D0032E14D0BB
:10074000190F3A0D2D0B23092C0144EA022242EA2B
:1007500001321A4300688263F0BD1A432243F9E76D
:10076000AB0A5B0143EAC22206E0DB0FEC0A64013C
:1007700044EA822242EAC3320A43EBE7014800F02E
:1007800031BC0000080A0020014800F02BBC00002A
:10079000680A002001681823CAB2103AB2FBF3F2CB
:1007A000054B6FF30901032A9B5CC36500D9091D42
:1007B00081650846704700000035060810B50146FF
:1007C00000208B698A6A4FF0C07453B1B3F5005FA3
:1007D00015D072B1012A0CD0022A0AD0032A09D1FD
:1007E00004E01AB1012A06D0022A03D1C96AC9015C
:1007F00000D5012010BDC96AA142FAD010BD002A5F
:10080000F7D0012AF2D0022AF3D0032AF3D010BD88
:100810007047802000F0A6BD70470022AFF3008033
:1008200030B50E4B054601205C7A002C14D1587A65
:100830001C54587A03EB800045605D7A03F1080090
:100840002A54587A421C5A72303008703A20487044
:100850002F208870CC70002030BD000060B40220D2
:1008600030B5D1E901231A43D1E903352B431A43AB
:100870004B690C681A438B691A43D1E90735012C7F
:10088000496A046807D01A432A436FF30E040A43E7
:10089000224302600AE024F4F8442B4321430B4333
:1008A000416803606FF30E010A434260002030BDCF
:1008B000426942EA4101416100207047F8B514469F
:1008C0000546D1E9000210438A686FF01F03C9682A
:1008D00003EB421242EA412108430090286100F0F4
:1008E00041FE064609E0601C07D024B100F03AFE44
:1008F000801BA04201D90320F8BDA8698006F2D46C
:100900000020F8BDF0B56FF00F05D1E9003405EB1C
:1009100004145B1E23432E018C682F0306EB042472
:1009200023434FEA054C0C8A8E8ACD68097E4FF02E
:100930007F4E07EB04440CEB06560EEB0161012AD7
:100940000CD082683F1107EB05352B43234333431B
:1009500002F070420B43134383600FE08768084A3C
:1009600017402A03A2F580523243C5683A43234315
:1009700005F070450B432B438260C3600020F0BD3F
:10098000FF0F0FFFF0B585B000248DF8104031A0A7
:1009900004F046FC33490120887000F0BDF80422C1
:1009A00002A948F2401000F085F848F247050122FC
:1009B00003A9284600F07EF89DF80C109DF80B0066
:1009C000CDE900019DF80A309DF809209DF8081036
:1009D00025A004F025FC02208DF81000EE1F9DF8E4
:1009E0000C70012204A9304600F08AF9602F25D24C
:1009F00039462AA004F014FC01208DF800408DF83F
:100A000001002B48002100BF435C9DF80020491CD9
:100A10001A44C9B28DF80020B829F5D3D0B2C0432A
:100A2000401C8DF80000B8222149284600F068F9E2
:100A30000222694648F2FF0000F062F90A2000F045
:100A40000BFC8DF81040012204A9304600F058F943
:100A500005B0F0BD47543931315F496E69740D0AF4
:100A600000000000D00B0020546F75636850616473
:100A70005F49443A25632563256325630D0A546F56
:100A80007563685061645F436F6E6669675F566542
:100A90007273696F6E3A25640D0A000044656661E1
:100AA000756C74205665723A25640D0A00000000CA
:100AB000203506082DE9F04115460E46044602F0A1
:100AC000C1FB282002F076FB02F010FC200A02F0A5
:100AD00071FB02F00BFCE0B202F06CFB02F006FCD2
:100AE00002F0DEFB02F0AEFB292002F063FB02F015
:100AF000FDFB00246F1E09E0BC4201D0012000E094
:100B0000002002F01BFB3055641CE4B2AC42F3D36E
:100B1000BDE8F04102F0C4BB70B5184C86B00022AD
:100B200080212046FFF7C6FD01228021204600F0EB
:100B300014FD012000F090FB114EA515002229465E
:100B4000304600F00AFD0A2000F086FB012229460B
:100B5000304600F002FD0A2000F07EFB80200021DC
:100B6000CDE900010320CDE902106946204600F0DE
:100B700005FC642000F070FB06B070BD001C024054
:100B8000002002402DE9F147554E00244FF00A0A9B
:100B9000307883B0401CC0B2B0FBFAF20AFB1201FD
:100BA000504DA046307009B10A2872D248F24E1951
:100BB000012203A94846FFF77DFF9DF80C004FF086
:100BC000000701060AD500F00F00062806D28DF8AE
:100BD0000870012202A9484600F092F89DF80C0026
:100BE000010756D000F00F00062852D2FF218140A5
:100BF000C8B28DF80800C04395F8009040F0C000DE
:100C0000288068896882A88AA8834FF0010829880B
:100C100008FA04F0014222D03348042201A930F836
:100C20001400FFF747FF9DF804009DF8051000EB46
:100C30000120C0F5F07005EB440180B288829DF878
:100C400006209DF8073002EB0322C2F5487292B2EB
:100C50004A8123460090194624A004F0E1FA641C5E
:100C6000E4B2052CD3D369894FF001082846B1F5C9
:100C7000487F03D8818AB1F5F07F09D99DF80C101F
:100C800001F00F0101290BD981894181C18AA98213
:100C900037709DF80C0000F08F0080280AD016E015
:100CA000418A4181818B818280218DF80C10A5F8C9
:100CB0000090EEE72888010602D520F0800005E0CC
:100CC0004FF6FF716981A98200F0E000288030783A
:100CD000F02801D986F800A004B04046BDE8F087AE
:100CE00050000020D00B0020EC350608785B25640E
:100CF0005D3A25642C795B25645D3A25640D0A0014
:100D00002DE9F04116460F460446002502F09AFAF6
:100D1000282002F04FFA02F0E9FA200A02F04AFA1B
:100D200002F0E4FAE0B202F045FA02F0DFFA002441
:100D300008E0385D02F03EFA02F0D8FA050003D16F
:100D4000641CE4B2B442F4D302F0AAFA2846BDE827
:100D5000F081000070B590F83820012A24D00126D7
:100D600080F83860022280F8392000EB0112148CE0
:100D7000D369183243EA04451E4C0A2B16D0092BBE
:100D800014D0137B45EA03630029016813D0CD69B1
:100D9000A5431D43CD6103681168196151680A2993
:100DA0001BD0092919D01DE0022070BDD36803F0C3
:100DB0007F432B43E8E74D6AA5431D434D6203681B
:100DC0001168996151680A2901D009290AD1D168AD
:100DD000026821F07F41916204E0D168026821F04D
:100DE0007F41116280F83960002180F83810084690
:100DF00070BD00000F0003FF70B5040004D094F82C
:100E00003900002510B106E0012070BD84F838508B
:100E1000204600F01FF8022084F83900206801689D
:100E2000626821F44031114301602068416BA2687F
:100E300021F00701114341632068016CE2686FF300
:100E40000D0111430164E563012084F8390000209D
:100E500070BD000008B500680649884208D1064800
:100E6000016841F400010160006800F40000009096
:100E700008BD000000B00240303802402DE9F843C0
:100E800000260446009600680D4600684FF00407EF
:100E9000C0074FF0030825D000F064FB81461DE039
:100EA0004068009010F0210F0FD00098800603D505
:100EB000E06B40F00200E0630098C00703D0E06BF5
:100EC00040F00100E063212034E0681C06D000F00F
:100ED00049FBA0EB0900A8424DD8A5B320684168A2
:100EE0008907DDD52068C169406A01F0200100F062
:100EF0002000084335D000F035FB81462DE04068E6
:100F0000009010F0290F1FD00098000703D5E06B68
:100F100040F00400E0630098800603D5E06B40F0E9
:100F20000200E0630098C00703D0E06B40F00100CE
:100F3000E06329202168886084F8397084F838607B
:100F40000120BDE8F88316E0681C06D000F00AFB1B
:100F5000A0EB0900A8420ED86DB120684168C9060F
:100F6000CDD5216812208860012084F8390084F8EA
:100F700038600020E5E754F83C0F40F0200044F8CA
:100F8000040984F8018026700320DAE738B50446A6
:100F9000049894F83850012D10D0012584F8385069
:100FA000022584F8395000902046FFF79CFB20680A
:100FB000016841F001010160002038BD022038BD08
:100FC00090F83510022903D0802141650120704737
:100FD000052180F835100068016821F001010160E9
:100FE000002070472DE9F84304464FF00009CDF882
:100FF000009063484FF41651A56D0068B0FBF1F7FF
:101000002E6894F85C10082000FA01F131420FD0EC
:1010100021680A6852070BD50A6822F004020A60A8
:1010200094F85C108840A860606D40F00100606535
:1010300094F85C104FF0010808FA01F0304208D033
:1010400021684969090604D5A860606D40F0020076
:10105000606594F85C1004208840304208D0216814
:101060000968890704D5A860606D40F004006065D8
:1010700094F85C1010208840304218D0216809682C
:10108000090714D5A86020680168490304D50068E1
:10109000000308D5A16C07E00168C90503D4016805
:1010A00021F008010160216C09B12046884794F8BD
:1010B0005C1020208840304231D021680968C90680
:1010C0002DD5A86094F8350005282068016806D061
:1010D000490347D5006800031DD4616C1CE021F072
:1010E000160101602068416921F080014161206C96
:1010F00008B9A06C20B12068016821F008010160E6
:1011000094F85C103F208840A86084F8349084F8FC
:101110003580216D1FE0E16B09B120468847606D85
:1011200000282BD0606DC00714D0052084F835004E
:101130002068016821F0010101600098401C0090C6
:10114000B84203D820680068C007F6D184F834900C
:1011500084F83580E16C002910D001B02046BDE84C
:10116000F04308470168C905D5D4016821F0100192
:10117000016084F8349084F83580CCE7BDE8F883CA
:101180004C0000202DE9F041044600F0EBF9064642
:101190005CB1002584F83450022084F835002068C2
:1011A000016821F0010101600DE00120BDE8F0813E
:1011B00000F0D8F9801B052805D9202060650320A0
:1011C00084F83500F2E720680068C007F0D1226893
:1011D000116820480140D4E901031843D4E90336DB
:1011E0003343184363691843A3691843E3691843F9
:1011F000236A18430843616A042903D1D4E90B1315
:1012000019430843106020684069666A20F00701AE
:1012100030460E43012704280CD1A06A0643E06A39
:1012200040B12046FFF7CAFA20B14020606584F83B
:101230003570BAE7206846612046FFF7ABFA94F8AC
:101240005C203F2191408160656584F83570002005
:10125000ACE700003F8010F070B5044600F082F962
:101260000546601C02D004480078044400F07AF976
:10127000401BA042FAD370BD400000202DE9F0438E
:1012800087B014216846FEF7F7FF2B480168002954
:101290004ED10125056029488946016841F00101C8
:1012A00001600068022600F0010005904FF63F0043
:1012B0000324CDE90006CDE902540C2769460497C2
:1012C0001F4800F05BF80D20CDE90006CDE902547F
:1012D000694604971B4800F051F848F23710CDE9F1
:1012E0000006CDE9025469460497174800F046F815
:1012F0004FF68070CDE90006DFF85080CDE902544A
:1013000069460497404600F039F84CF20370CDE985
:101310000006CDE90254694604970D4800F02EF806
:101320008DE85002CDE903476946404600F026F8B3
:1013300007B0BDE8F08300003400002038380240D8
:101340000014024000080240001802400010024051
:10135000000C0240802802D101490120088070471A
:10136000D00B0020044910B50A68024202D0086080
:10137000FFF7F0FF10BD0000143C01402DE9F84FCD
:1013800000224FF0010803254FF00F0E0B6808FAFA
:1013900002F42340A3426ED14E68012E05D0022EE6
:1013A00003D0112E01D0122E12D186684FEA420CC2
:1013B00005FA0CF7BE43CF6807FA0CF7374387608E
:1013C0004668A6430C79C4F3001494403443446047
:1013D000C668570005FA07FC8C6826EA0C06BC4074
:1013E0003443C4604C68022C01D0122C13D1D408B1
:1013F00000EB8404A346D4F8209054074FEAD46A43
:101400000EFA0AF629EA06090E6906FA0AF646EA0B
:101410000906CBF8206004680E7924EA0C0406F073
:101420000306BE40264306604C68E4006FD53B4C83
:10143000266846F480462660246822F0030604F4F9
:1014400080440094364C3444A446D4F808489607A7
:10145000360F0EFA06F7BC43324FB84201D10027CF
:101460002EE0314FB84201D1012729E02F4FB84279
:1014700002D1022724E04AE02D4FB84201D10327D0
:101480001EE02C4FB84201D1042719E02A4FB84280
:1014900001D1052714E0294FB84201D106270FE0FA
:1014A000274FB84201D107270AE0264FB84201D1A1
:1014B000082705E0244FB84201D1092700E00A2798
:1014C000B7402743CCF80878204E34684F689C43D7
:1014D000FF0300D51C4334601C4E361D34684F6832
:1014E0009C43BF0300D51C433460184E0836346853
:1014F0004F689C43FF0200D51C433460134E0C36EA
:1015000034684F689C43BF0200D51C433460521CB2
:10151000102AFFF43BAFBDE8F88F000044380240CA
:101520000030014000000240000402400008024078
:10153000000C02400010024000140240001802405B
:10154000001C02400020024000240240003C0140F8
:101550000069084000D0012070470AB181617047DE
:101560000904FBE701488068704700004000002044
:101570000248816802781144816070474000002071
:101580000B4810B5016841F400710160016841F435
:1015900080610160016841F480710160032000F006
:1015A000DBF9002000F006F800F090F9002010BDF3
:1015B000003C024070B50D4D04464FF47A71287816
:1015C000B1FBF0F00A490968B1FBF0F001F068FBEB
:1015D00048B9102C07D200222146501E00F09CF979
:1015E00000206C6070BD012070BD00004000002034
:1015F0004C0000202DE9F041044690F8A00016466A
:101600000F4601281DD0012584F8A050022084F83F
:10161000A10006EB860000EBC60004EB800034223C
:101620003830FEF710FE32463946204601F0E2FE21
:101630002068456284F8A150002084F8A000BDE82D
:10164000F0810220FBE7000070B5040004D094F89C
:10165000A100002510B106E0012070BD84F8A05063
:10166000204600F06BF8022084F8A1002068816910
:1016700021F070418161D4E901010843D4E90312EA
:101680001143084321688A691043886121688A6888
:10169000294802408A60A18A0A0421688B68A669E9
:1016A000334313438B602168CA680240CA60A18B30
:1016B0000B042168CA68266A32431A43CA6021684B
:1016C0000A6902400A61A18C22680B041169A66AAA
:1016D00031431943116121684A6902404A61A08D72
:1016E000010420684269236B1A430A43426194F85B
:1016F00035002168020294F83600CB6A03F07F437C
:10170000CB622168CB6A94F8346042EA00403343EC
:101710000343CB622068416B41F0060141632068BE
:10172000816941F001018161C4F8A450012084F86D
:10173000A100002070BD000000F800F0F0B587B0F7
:10174000044614216846FEF797FD30492068884218
:1017500059D12F480024016841F080610160006880
:1017600000F0806005902A481438016841F48071C7
:101770000160016801F480710591016841F0200168
:101780000160016801F020010591016841F08001CC
:101790000160016801F080010591016841F040019C
:1017A00001600068022500F04000059040F2F760FB
:1017B000CDE9000502AA03260E2782E8D00069467B
:1017C0001448FFF7DBFD6802CDE9000502AA69466F
:1017D00082E8D0001048FFF7D1FD4FF47E40CDE9FC
:1017E000000502AA694682E8D0000C48FFF7C6FD52
:1017F0004FF40C60CDE9000502AA694682E8D000EA
:101800000748FFF7BBFD07B0F0BD000000680140CE
:10181000443802400020024000140240001C0240F4
:101820000018024070B5044690F8A0000E4601284A
:1018300020D0012584F8A050022084F8A10003EBF9
:10184000830000EBC30004EB800141F8386F886A25
:101850003044C1E90102C86A1044C8601A462046F3
:1018600001F0C8FD2068456284F8A150002084F88A
:10187000A00070BD022070BD70B5044690F8A000B5
:101880000E46012820D0012584F8A050022084F8BB
:10189000A10003EB830000EBC30004EB800151F8CF
:1018A000380F3044486088681044C860C1E90A6253
:1018B0001A46204601F09EFD2068456284F8A1503A
:1018C000002084F8A00070BD022070BD0A4808B551
:1018D000016841F480410160006800F4804000909C
:1018E0000548001F016841F080510160006800F068
:1018F0008050009008BD000044380240002809DBF9
:1019000000F01F02012191404009800000F1E02019
:10191000C0F8001170470000F0B40E4B1B680C4675
:10192000C3F30223C3F10705042D00D90425191DB3
:10193000072901D2002300E0DB1E012606FA05F18B
:10194000491E214099409E40761E16403143F0BC0E
:1019500003F076BC0CED00E0064900F007020868D1
:101960004FF6FF03184040EA0220034A1043086084
:10197000704700000CED00E00000FA052DE9F84387
:101980001748016841F0805101600068154F00F070
:101990008050012600903E64FFF7E4FD05464FF4B9
:1019A0007A78114C05E000BFFFF7DCFD401B404595
:1019B0000DD86068C003F7D57E64FFF7D3FD0546F8
:1019C000464607E0FFF7CEFD401BB04202D9032098
:1019D000BDE8F88360688003F4D50020F8E70000D4
:1019E0004038024000000E42007000402DE9F84FE0
:1019F00004460068DFF824A2894F8A4DC1074FF0E2
:101A000001084FF0000603D1810701D4400648D5F4
:101A1000CAF86860FFF7A6FD814605E0FFF7A2FD62
:101A2000A0EB090002287DD828680001F6D42078B0
:101A3000C1077D4805D06168227A890141EA0271B7
:101A400001602178890711D501686268237B9201C2
:101A5000C1F3027142EA036242EA0171016039682E
:101A6000E26921F01F01521E1143396021784906B5
:101A700008D56168227B890141EA0261227A41EA44
:101A800002710160CAF86880FFF76CFD814605E0CD
:101A9000FFF768FDA0EB0900022843D82868000181
:101AA000F6D52068410701D400074ED5CAF870600A
:101AB000FFF758FD814605E0FFF754FDA0EB090054
:101AC00002282FD82868C0438000F5D52078410728
:101AD000564814D501682269237D9201C1F3027131
:101AE00042EA036242EA017101603968226A6FF0DA
:101AF000FF0321F4F85103EB0222114339602178EE
:101B0000090712D501682269C1F30361920142EA13
:101B10000161227E41EA027101603868616A20F445
:101B2000403000E051E008433860CAF87080FFF7A9
:101B300019FD074605E000BFFFF714FDC01B022892
:101B400043D82868C0438000F6D42078800653D557
:101B500034484030016841F0805101600068344DE4
:101B600000F080500090286840F480702860FFF7F3
:101B7000F9FC074605E000BFFFF7F4FCC01B022894
:101B800023D82868C005F7D5274D143D286810F4E0
:101B9000407020D0218D01F4407181421BD0286813
:101BA00020F440712348C0F800800660296028684E
:101BB000C00710D0FFF7D6FC064641F2883707E091
:101BC000FFF7D0FC801BB84202D90320BDE8F88F94
:101BD00028688007F4D5A16A1248C1F301220830B1
:101BE000032A13D0016821F4F81101602868218DBF
:101BF000C1F30B01084328602078C00604D50E49C4
:101C000094F82C00C1F8E0010020DFE702680B4BDC
:101C100022F4F81219400A430260E7E70000474245
:101C20008C38024000380240843802408838024034
:101C300000700040400E474200104742FFFCFF0F7B
:101C40002DE9F0470E46050065D0DFF81481D8F87D
:101C50000000F7B200F00F00B04207D288F8007021
:101C6000D8F8000000F00F00B04254D128683D4C75
:101C7000810712D5400703D5206840F4E05020606A
:101C80002878000703D5206840F460402060206871
:101C9000A96820F0F000084320602878C0072DD004
:101CA000304968680839012812D0022813D0032867
:101CB00011D00968890700292DDA216821F0030174
:101CC00001432160FFF74EFC814641F2883A0EE065
:101CD00009688903EFE709688901ECE7FFF742FC2F
:101CE000A0EB0901514502D90320BDE8F087206827
:101CF000696800F00C00B0EB810FEFD1D8F800104C
:101D0000404601F00F01B14207D90770006800F0AA
:101D10000F00B04201D00120E7E72878400705D541
:101D20002068E96820F4E050084320602878000724
:101D300006D52068296920F4604040EAC10020608F
:101D400000F038F82168084AC1F30311515CC8401B
:101D50000649086006480068FFF72CFC0020C4E72D
:101D6000003C024008380240083506084C000020BC
:101D7000440000200448054900680968044AC1F38A
:101D80008221515CC84070474C0000200838024056
:101D9000183506080448054900680968044AC1F373
:101DA0004231515CC84070474C0000200838024066
:101DB00018350608154810B5006810F00C021448D4
:101DC00013D01449042A0FD0082A0ED10F4C241F17
:101DD0002268236802F03F025B0207D52068C0F347
:101DE0008810A0FB010106E0084610BD2168C1F380
:101DF0008811A1FB00010023FEF7F4F92168C1F36B
:101E00000141491C4900B0FBF1F010BD0838024007
:101E10000024F40040787D012DE9F84F040076D0CD
:101E20002078DFF838A3CE4DC00749D0DAF800108B
:101E30005046C1F38101012908D00068C0F3810038
:101E400002280AD1281D0068400206D528688003B0
:101E500036D560680028E2D032E06068B0F5803F97
:101E600010D0B0F5A02F286810D020F48030286062
:101E7000286820F4802028606068A0B1FFF772FB1A
:101E800006460CE0286840F48030F4E740F48020F7
:101E90002860F7E7FFF766FB801B642873D8286883
:101EA0008003F7D50CE0FFF75DFB064605E000BFB9
:101EB000FFF758FB801B6428F0D828688003F7D40C
:101EC0002078DFF8A08280074FF000093ED5DAF8CD
:101ED0000010504611F00C0F09D00068C0F38100CB
:101EE00002280BD19D48001F0068400206D42868D4
:101EF000800715D5E068012809D111E0E068B8B184
:101F00000120C8F80000FFF72DFB064605E020E1A0
:101F1000FFF728FB801B0228C0D828688007F7D568
:101F20002868216920F0F80040EAC10028600DE02F
:101F3000C8F80090FFF716FB064604E0FFF712FB17
:101F4000801B02281FD828688007F7D42078000754
:101F500022D5824E844861696C3671B101210160DD
:101F6000FFF700FB074604E0FFF7FCFAC01B02285E
:101F700009D830688007F7D50EE0C0F80090FFF769
:101F8000F1FA074605E082E0FFF7ECFAC01B0228F1
:101F90007DD830688007F7D42078400768D5DFF80F
:101FA000BCB100270BF1380BDBF80000C0000BD4EC
:101FB000DBF8001041F08051CBF80010DBF8000096
:101FC000012700F080500090684E3068C00510D4A2
:101FD000306840F480703060FFF7C4FA009005E08C
:101FE000FFF7C0FA0099401A022850D83068C0059F
:101FF000F6D55A4EA068683601280FD005283068FB
:1020000010D020F001003060306820F00400306013
:10201000A068B8B1FFF7A6FA00900FE0306840F072
:102020000100F4E740F004003060F7E7FFF79AFAA8
:102030000099411A41F28830814266D830688007A1
:10204000F4D50EE0FFF78EFA009007E0FFF78AFA6A
:102050000099411A41F28830814256D83068800791
:10206000F4D42FB1DBF8001021F08051CBF8001030
:10207000A069D0B3DAF800205146C2F38102022AE7
:102080004AD00228484607D0C8F8600000E03CE08B
:10209000FFF768FA04463BE04746C8F86000FFF7E0
:1020A00061FA064605E000BFFFF75CFA801B0228D4
:1020B0002BD828688001F7D4D4E907010843A16A26
:1020C0002B4A490802EB0141626A41EA8211084346
:1020D00094F82C1040EA01612048001F01600120A3
:1020E0003866FFF73FFA044605E034E0FFF73AFAB6
:1020F000001B022809D828688001F7D52BE000BF13
:10210000FFF730FA001B022802D90320BDE8F88F40
:1021100028688001F4D41EE00128F7D00868E2693D
:1021200000F48001914214D1226A00F03F019142F3
:102130000FD147F6C071626A0140914209D1A26A8B
:1021400000F44031914204D1E16A00F070608842AD
:1021500001D00120DAE70020D8E70000083802406B
:102160000038024000004742800E474200700040A5
:102170000000FFFF70B50D46040003D094F82C005A
:1021800010B107E0012070BD002084F82D0020462A
:1021900000F011F8022084F82C00211D2068FEF7C1
:1021A0005FFBD4E900022946FEF7ACFB012084F86E
:1021B0002C00002070BDFFF761B810B5044690F800
:1021C0002C00022809D0022084F82C002068FEF799
:1021D0006FFB012084F82C00002010BD70B5044670
:1021E00090F82C000D4602280DD0022084F82C0017
:1021F0002068FEF763FB2868022805D05FF0010025
:1022000084F82C00002070BD0520F9E710B5FEF71A
:10221000F9F910BD2DE9FE43044603200F4684F86A
:102220003400606C03285AD0B7F5805F57D04FF464
:10223000006600254FF08068B7421CD100950195DB
:102240000021206802F02BF8800121D46946204645
:1022500002F0A6FB98BB0198400332D5B4F85000B9
:102260000104206802F056F848BB0221206822E0F1
:10227000A06B284327E01FB1A06B40F0006022E074
:10228000009501950021206802F009F8800101D530
:102290003546EDE76946204602F082FB78B90198A1
:1022A000C0030ED5B4F850000104206802F032F8E3
:1022B00028B90021206802F07AF80028D8D0054615
:1022C000D6E74546D4E7A063A06B012558B1216845
:1022D0000C48886384F834500120BDE8FE83A06B6D
:1022E00040F08050EFE7211DD4E905060EC90097A4
:1022F000CDE90106206801F0DBFF84F834500020AE
:10230000EBE70000FF05400070470000F0B5426EAB
:10231000920F0A70426EC2F383624A70426EC2F339
:1023200001628A70426E120CCA70B0F86420120A00
:102330000A7190F864204A71826E120DCA80826E12
:10234000C2F303420A72B0F86820C2F3C0324A7284
:10235000B0F86820C2F380328A72B0F86820C2F305
:102360004032CA72B0F86820C2F300320A73002605
:102370004E73426C4FF40075012462B1012A3AD0C9
:10238000026847499163816B41F08051816380F815
:1023900034400120F0BDB0F86820C36E9205120DE4
:1023A00042EA93720A61C26EC2F3C2620A75C26ED9
:1023B000C2F302624A75C26EC2F342528A75C26E9D
:1023C000C2F38242CA75C26EC2F3C2320A760A6989
:1023D000521C42650B7E03F007039B1C9A4042652A
:1023E0000B7A03F00F0704FA07F383655B0A5A437D
:1023F000C0E917250EE090F86820C36E9206920A95
:1024000042EA13420A610A69521C92024265C0E91B
:102410001652056630F86C2FC2F3803201F8192F7E
:102420000288C2F3C6124A70027802F07F028A70F4
:102430004268D20FCA704268C2F341720A714268A0
:10244000C2F382624A714268C2F383528A7142685F
:10245000C2F34052CA710E724268C2F300424A721D
:102460008288C2F3C0328A728288C2F38032CA7212
:102470008288C2F340320A738288C2F300324A7300
:102480008288C2F381228A738288C2F30122CA73CE
:102490000079C0F3460008744C740020F0BD0000C1
:1024A000FF054000426C0A60826C4A60C26C8A6020
:1024B000026DCA60426D0A61826D4A61C26D8A61B5
:1024C000006EC8610020704770B50446B0F8500037
:1024D00000250104206802F074F818B1A16B0143D3
:1024E000A16304E00021206801F0D9FE0546C5F390
:1024F000432070BDF8B5056B04460068416B0904C4
:102500001BD5290719D5D4E90A56002E14D0002767
:10251000206801F0E7FE05F8010B010A05F8011B30
:10252000010C05F8021B000E361F7F1C05F8010C7C
:10253000082FEDD3C4E90A56F8BD416B4FF00006F1
:10254000C9054FF0010744D5390281632068C16B8A
:102550004CF23A329143C1632068C16A21F0010113
:10256000C16228071DD515F0220F09D0206802F09E
:1025700059F828B1A16B0143A1632046FFF7C4FEBF
:10258000216840F23A50886384F834702663A807C3
:1025900003D0204600F096FAF8BD204600F096FAE7
:1025A000F8BD2806FCD5A80609D5206802F03AF83F
:1025B00028B1A16B0143A1632046FFF7A5FEA80740
:1025C000EED12068C16A21F00801C16284F834703C
:1025D000E3E7416B490424D5290722D5D4E90856FD
:1025E000002EDDD05FF0000715F8010B009015F804
:1025F000011B361F40EA0120009015F8021B40EA3B
:102600000140009015F8011C40EA01600090694605
:10261000206801F07AFE7F1C082FE5D3C4E9085634
:10262000F8BD416B40F23A221142F9D0416B890763
:1026300003D5A16B41F00201A163416B090703D5EA
:10264000A16B41F00801A163416B890603D5A16B21
:1026500041F02001A163416BC90603D5A16B41F094
:102660001001A163416B890503D5A16B41F00801FD
:10267000A16340F23A7181632068C16B40F23A3243
:102680009143C163206801F0CDFFA16B0843A063B3
:10269000280706D584F8347026632046FFF734FEF9
:1026A000F8BD2806FCD515F0300F0CD0E16B1148B1
:1026B0000865E06BFEF784FC0028F1D0E06BBDE814
:1026C000F84002F04BB9A8070CD0216C0A48086505
:1026D000206CFEF775FC0028E2D0206CBDE8F840C5
:1026E00002F01AB9A66384F8347026632046FFF717
:1026F0008DFDF8BD5D4900081949000870B504005A
:102700000ED094F83400002518B92577204600F043
:102710003BF8032084F83400204600F00BF808B1A1
:10272000012070BDA5632563012084F834000020DA
:1027300070BD0000FEB50025044676200095CDE969
:10274000015029460B460A46206801F0B1FD08B148
:102750000120FEBD0B4E46F8A05F206801F0BAFDD7
:1027600001253560204602F0FDF920B9204602F02F
:1027700081F90028EDD084F83450A16B0143A163A6
:10278000E6E70000008025422DE9F04F87B00546BE
:1027900014216846FDF770FD4649286888427DD1BE
:1027A00045480068444940F400600860086800F447
:1027B000006005904048143800683F4940F004002C
:1027C00014390860086800F004000590086840F0BB
:1027D000080008600868022400F0080005904FF423
:1027E000F850CDE9000402AA002003264FF00C089F
:1027F00082E8410169463148FEF7C0FD02AA002087
:1028000082E841010427CDE9007469462C48FEF7AF
:10281000B5FD2D4C2B484FF00068C4E9000800209E
:102820004FF48069A060C4E90309B8024FF4804BFB
:10283000C4E9050BC4E909764FF0200A0020C4E979
:1028400007A07E05B7102046C4E90B67FEF79AFC87
:1028500008B1FDF7E1FF2C64A5631B4C19486034F7
:102860004830C4E900084020A0600020C4E9030902
:10287000C4E907A00420606204F12802032082E872
:10288000C1004FF48051C4E9051B2046FEF77AFCD5
:1028900008B1FDF7C1FFEC63002200E007E011463C
:1028A0003120A563FFF738F83120FFF727F807B08C
:1028B000BDE8F08F002C014044380240000802407F
:1028C000000C024058640240080A00202DE9F04F35
:1028D00087B09B4616460D460446FEF743FE009021
:1028E0003DB194F83400012807D0A06B40F00050AF
:1028F0000DE0A06B40F0006009E00027A763E16DE8
:1029000006EB0B00884204D9A06B40F00070A06376
:1029100095E0032084F834002068C762606C0128C9
:1029200000D076024FF40071206801F027FDDFF837
:1029300090A1012140B12368C3F838A0A26B0243E3
:10294000A26384F834107AE04FF0FF3001904FEA30
:102950004B200290902003900220CDE904070691BD
:102960008846B94601A9206801F083FCBBF1010F3C
:1029700006D9022020633146206801F093FD05E06E
:10298000C4F830803146206801F0A5FD30B12268DE
:10299000C2F838A0A16B0143A1634CE0029E1EE087
:1029A000406B000413D596B10027206801F09AFC13
:1029B00005F8010B010A05F8011B010C05F8021BC3
:1029C000000E361F7F1C05F8010C082FEDD3FEF713
:1029D000C9FD0099411A109881421DD2E0B12068CA
:1029E000426B40F22A310A42DAD0416BC90509D55F
:1029F000BBF1010F06D9616C032903D001F012FE6F
:102A00000028C4D12068416B09071AD5C0F838A046
:102A1000A06B40F0080051E02168C1F838A0A06B1D
:102A200040F00040A06384F83480C4F83090032064
:102A300007B0BDE8F08F84F83480C4F830900120EE
:102A4000F6E7416B890705D5C0F838A0A06B40F0C8
:102A5000020033E0416B89061CD5C0F838A0A06B9A
:102A600040F020002AE000BF01F03CFC05F8010B1B
:102A7000010A05F8011B010C05F8021B000E05F800
:102A8000010C361FFEF76EFD0099411A1098814225
:102A90000ED268B12068416B890201D5002EE3D1C6
:102AA000216840F23A50886384F834800020BFE700
:102AB0002168C1F838A0A06B40F00040A063BAE7DD
:102AC000FF05400010B5FDF7DBFD10BD10B5FDF7AB
:102AD000E9FD10BD2DE9FF4F8DB016460D460446A9
:102AE000FEF740FD0B903DB194F83400012807D06B
:102AF000A06B40F000500DE0A06B40F0006009E0DA
:102B00000027A7631098E16D3044884204D9A06B78
:102B100040F00070A0638BE0032084F8340020684C
:102B2000C762606C012800D076024FF40071206803
:102B300001F024FCDFF864B1012140B12368C3F83F
:102B400038B0A26B0243A26384F8341070E04FF0F7
:102B5000FF30039010988946400204909020CDE900
:102B60000507CDE90771BA4603A9206801F081FB8A
:102B70001098012806D9202020633146206801F0F2
:102B80006BFD05E0102020633146206801F07DFDDB
:102B90005FEA000806D02168C1F838B0A06B40EAAF
:102BA000080071E0049E27E0406B40041CD5DEB1B4
:102BB0005FF0000715F8010B009015F8011B361F98
:102BC00040EA0120009015F8021B40EA0140009005
:102BD00015F8011C40EA016000906946206801F088
:102BE00094FB7F1C082FE5D3FEF7BCFC0B99411A20
:102BF0001A98814220D2F8B12068416B40F21A3213
:102C00001142D1D0416BC90523D51099012920D992
:102C1000616C03291DD001F005FDD0B12268C2F816
:102C200038B0A16B0143A16384F83490C4F830A09C
:102C3000012011B0BDE8F08F2168C1F838B0A06B59
:102C400040EA0800A06384F83490C4F830A0032060
:102C5000EFE72068416B090705D5C0F838B0A06BD5
:102C600040F0080010E0416B890705D5C0F838B086
:102C7000A06B40F0020007E0416BC90606D5C0F822
:102C800038B0A06B40F01000A063CDE740F23A519D
:102C9000816384F834900020CBE70000FF054000FA
:102CA00010B5401EB0F1807F01D3012010BD4FF060
:102CB000E02460610F21601702F0C2FA0020A061D9
:102CC00007202061002010BD10B5040003D094F847
:102CD0003D0010B107E0012010BD002084F83C0049
:102CE000204600F00CF8022084F83D00211D2068E9
:102CF00002F070F8012084F83D00002010BD7047FC
:102D00000168CA6842F00102CA600068816801F087
:102D10000701062903D0016841F00101016000208C
:102D20007047704770B5026804461068D1685369EF
:102D300010F00F0F53D003F0010501F490762E43ED
:102D40005FD0C20705D0CA0503D5E26B42F001028D
:102D5000E263420705D5DA0703D0E26B42F00202D4
:102D6000E263820705D5DA0703D0E26B42F0040282
:102D7000E263020707D501F020022A4303D0E26B89
:102D800042F00802E263E26B002A34D0800604D5E8
:102D9000880602D5204602F0C1F820684069E16B40
:102DA000C0F3801001F008010143204624D002F056
:102DB000A7F82068416949061AD5416921F0400108
:102DC0004161606BA0B11B490165606BFEF7F8F8CB
:102DD000002810D0606B016DBDE870400847830685
:102DE0000FD58B060DD52046BDE8704002F096B891
:102DF0002046FFF796FF70BDFFF793FF0020E063CA
:102E000070BD030606D50B0604D52046BDE870400C
:102E100002F064B94006F3D54806F1D5D1682046E2
:102E200021F04001D160202184F8391000F031F9FF
:102E300070BD0000F14E000870B5040004D094F895
:102E40003900002510B106E0012070BD84F838502B
:102E5000204600F023F8242084F839002068C16857
:102E600021F40051C160204602F0A4F820680169F5
:102E700021F4904101612068416921F02A014161FA
:102E80002068C16841F40051C160E563202084F8E6
:102E9000390084F83A00002070BD000010B586B0FB
:102EA000044614216846FDF7E7F91849206888426E
:102EB00029D11748016841F010010160006800F055
:102EC0001000059012481438016841F001010160BA
:102ED0000068694600F0010005904FF4C060009062
:102EE000022001900120029003200390072004900B
:102EF0000848FEF743FA012211462520FEF70CFD93
:102F00002520FEF7FBFC06B010BD000000100140BC
:102F100044380240000002402DE9F843044690F88E
:102F20003A00994616460D46202852D1BDB1B6B199
:102F300094F8380001284CD0012084F8380000278C
:102F4000E763222084F83A002C34FEF70BFB24F8C8
:102F5000026B804624F80A6B04F8387931E00120CE
:102F6000BDE8F883E08D401EE085A0684346B0F5DB
:102F7000805F4FF000024FF020012046CDF8009016
:102F800004D002F0DCF898B10320E9E702F0D7F8AA
:102F90000028F9D1206900282068406803D0C1B218
:102FA00025F8011B0DE0C0F3080125F8021B08E01D
:102FB000206900282068406801D000F07F0005F8F3
:102FC000010BE08D0028CDD1202084F83A000020AC
:102FD000C6E70220C4E770472DE9F843044690F89D
:102FE00039001F4616460D46202850D1B5B1AEB166
:102FF00094F8380001284AD0012084F838004FF0B6
:103000000008C4F83C80212084F83900FEF7AAFAB1
:10301000A6848146E68484F8388026E00120BDE855
:10302000F883E08C401EE084A0684B46B0F5805FDA
:103030004FF000024FF080012046009703D002F0CD
:103040007EF8E8B90DE002F07AF8C8B9288821685E
:10305000C0F308004860206908B16D1C05E0AD1C94
:1030600003E0216815F8010B4860E08C0028D8D1F6
:103070004B46002240212046009702F060F808B13C
:103080000320CCE7202084F839000020C7E7022085
:10309000C5E77047FEE7000070B5134C0022082119
:1030A0002046FDF707FB114D002240212846FEF780
:1030B00054FA002208212046FEF74FFA0120FDF7BE
:1030C000F3FA012240212846FEF747FA0120FDF7D6
:1030D000EBFA002240212846FEF73FFABDE8704097
:1030E0000120FDF7E1BA000000200240001C024070
:1030F00010B5104C002208212046FDF7DBFA012212
:1031000008212046FEF729FA0120FDF7CDFA0A4CE6
:10311000012240212046FEF720FA0120FDF7C4FAE3
:10312000002240212046FEF718FABDE81040012099
:10313000FDF7BABA00200240001C02402DE9F04120
:103140001A4E07460024012208213046FDF7B2FA44
:10315000B046174E0025002240213046FEF7FDF90B
:103160000120FDF7A1FA012240213046FEF7F5F9D2
:103170006006040E08214046FEF7EAF908B1641C17
:10318000E4B20120FDF790FA6D1CEDB2082DE2D3F8
:10319000002240213046FEF7E0F927B1FFF77CFF1F
:1031A0002046BDE8F081FFF7A3FFF9E700200240C9
:1031B000001C02402DE9F041204F05460022082165
:1031C0003846FDF777FA1E4E002240213046FEF7C2
:1031D000C4F90024280601D5012200E000220821BC
:1031E0003846FEF7BAF96806050E0120FDF75CFACD
:1031F000012240213046FEF7B0F90120FDF754FAD4
:10320000002240213046FEF7A8F90120FDF74CFAD4
:10321000641CE4B2082CDDD3012208213846FEF7F5
:103220009CF90120FDF740FA002240213046FEF7CC
:1032300094F9BDE8F0410120FDF736BA00200240C4
:10324000001C024070B5144C002208212046FDF7F6
:1032500031FA012208212046FEF77FF90120FDF70F
:1032600023FA0E4D012240212846FEF776F901206F
:10327000FDF71AFA002208212046FEF76EF9012018
:10328000FDF712FA002240212846FEF766F9BDE854
:1032900070400120FDF708BA00200240001C0240E7
:1032A00010B5104C002208212046FDF703FA002239
:1032B00008212046FEF751F90120FDF7F5F901221A
:1032C00040210948FEF749F90120FDF7EDF90122F7
:1032D00008212046FEF741F9BDE810400120FDF726
:1032E000E3B9000000200240001C024070B5174DF9
:1032F0000024012208212846FDF7DCF901220821DB
:103300002846FEF72AF90120FDF7CEF9104E0122DA
:1033100040213046FEF721F90120FDF7C5F907E00D
:10332000641CE4B2FA2C03D9FFF7BAFF012070BD88
:1033300008212846FEF70CF90028F1D1002240218F
:103340003046FEF70AF9002070BD00000020024060
:10335000001C02402DE9F8430F468046DDE90814C1
:10336000204816464FF4403242601F4A1D461268FC
:1033700002EB820303EBC2021C4B03EB8202926C52
:10338000022A1ED000228260C160194901601548DE
:10339000FDF732FD002822D141461248FDF7DAFC44
:1033A00000281CD133463A4621460E480095FDF7C9
:1033B000EDFD002813D1BDE8F8430A210948FDF7C7
:1033C0005DBD0222826004F47842120204F4FC63C0
:1033D00042EA431204F01F0342EAC304D4E7BDE803
:1033E000F8830000B802002014000020DC08002050
:1033F00000B00240F0B503688C88DD68C5F30B456A
:103400002C442504882404EBC2141E5906F470468B
:103410001E5103680F68DE68C6F30B46761C3E44F7
:103420002E431E5104688B89E568C5F30A052B44B9
:103430001D048C2303EBC213E65806F47046E650D5
:1034400004688F68E668C6F30A06761C3E442E437D
:10345000E6509423046803EBC213E55825F00705F2
:10346000E55005680C69EC5091F831300C7E1F0274
:1034700026069C24056804EBC21491F8323055F8F6
:1034800004C04FF0000C45F804C091F8305046EAF3
:1034900003433D431D4303681D519823046803EB18
:1034A000C213E55825F0FF05E55005684C69EC505E
:1034B000A023046803EBC213E55840F20776B54336
:1034C000E550D1E907452C430568EC50AC2304686E
:1034D00003EBC213E55844F803C005684C6AEC508E
:1034E0000B698BB3012B32D0042B32D0022B30D09E
:1034F000032B2ED0072B2CD00123B024056804EB1E
:10350000C2142E5906F0E0262E51D1E90065AD1BFC
:103510000E8D5D435E43ED1C45EA064305682B5165
:10352000B423046803EBC213E5586FF30A05E550B2
:103530000468C96AE1500068842101EBC211425855
:1035400042F001024250F0BDFFE70423D5E7032318
:10355000D3E70223D1E700000F4810B50D49016001
:1035600000210222C0E90112C160C0E90A12016310
:103570004163FDF741FC08B1FDF74EF90121064812
:10358000FDF7E8FB002803D0BDE81040FDF744B983
:1035900010BD000000B00240B80200200D4808B580
:1035A000016841F4800101600068032200F480009A
:1035B000009011463B20FEF7AFF93B20FEF79EF945
:1035C000032211464520FEF7A7F9BDE80840452033
:1035D000FEF794B93038024000B587B01C21684628
:1035E000FCF74AFE15481449012201600021C0E998
:1035F000011208221023C0E90323402343614FF442
:10360000C073C0E906311302C0E90831910281623A
:10361000022006210090CDE9012103910421CDE98A
:103620000410069069460548FEF7A4FD002801D065
:10363000FDF7F2F807B000BD400100A0A808002087
:103640002DE9F04387B014216846FCF715FE4A487F
:103650000025016841F480710160016801F4807106
:103660000591016841F020010160016801F020012D
:103670000591016841F080010160016801F080015D
:103680000591016841F004010160016801F0040145
:103690000591016841F040010160016801F04001BD
:1036A0000591016841F010010160016801F010010D
:1036B0000591016841F008010160016801F008010D
:1036C0000591016841F001010160016801F001010B
:1036D0000591016841F0020101600068DFF89C80FB
:1036E00000F00200059000224FF484714046FDF77F
:1036F00034FF234F002240213846FDF72EFFDFF82C
:103700008490012220214846FDF727FFB8150124A7
:103710008DE83100694640460395FDF72FFE4020B5
:1037200003268DE8710069463846FDF727FE8020A4
:1037300000901548CDE9010469463846FDF71EFEA4
:1037400008208DE8710069464046FDF717FE2020ED
:10375000CDE90004CDE9024669464846FDF70EFE74
:10376000012211461720FEF7D7F81720FEF7C6F8FA
:1037700007B0BDE8F083000030380240002002406E
:10378000001C024000040240000021102DE9F0431B
:103790009BB034216846FCF76FFD34210DA8FCF77F
:1037A0006BFD354833490024C0E9001484602F21A3
:1037B000C460C0E9044102258721C0E906512221E5
:1037C000016240F2A731416240F20221816240F27F
:1037D000CF31C16240F20F21016380F8344080F89C
:1037E000354080F83640FDF72FFF08B1FDF714F89B
:1037F0004FF448764FF4F077CDE90046CDE9024723
:1038000005A9FF2004954FF480684FF0050981E871
:10381000110309A9800781E8C1008DF830408DF8B7
:1038200031408DF83240002269461348FDF7E2FE30
:1038300008B1FCF7F1FFCDE90D46CDE90F47CDE921
:1038400011540E4816A9012281E8C10013A80DA940
:1038500080E810038DF864408DF865408DF866406F
:103860000548FDF7C7FE002801D0FCF7D5FF1BB0C7
:10387000BDE8F08300680140DC080020000020C0A3
:10388000064805490160002141608160C160016115
:103890004161042181617047002C014084090020AE
:1038A0000C4810B50A4901604FF4E1314160002134
:1038B00081600C22C160C0E904128161C161FFF71F
:1038C000BBFA002803D0BDE81040FCF7A5BF10BD2F
:1038D00000100140C80A0020FEE77047FCF734BD25
:1038E0002DE9F0471F4616460D468046DDF820902C
:1038F0000CE0444606E04A462946204600F056FCC5
:10390000641CA4B2B442F6D36D1CADB2BD42F0D378
:10391000BDE8F0872DE9F05F81462D481E46DDF8B1
:1039200028B0838888464B4502D3C188414504D2DC
:10393000BDE8F05F27A001F073BCB088410700D05C
:10394000012101EBD000203A10FB02F0F1884FF08A
:10395000800A484331680F18002534E0002429E02C
:10396000ABF57F41FF3907D0387804F007022AFA17
:1039700002F1084207D10EE0397804F007022AFA72
:1039800002F0014210D008EB050081B209EB0400FF
:1039900080B20B9A06E008EB050081B209EB040047
:1039A00080B25A4600F002FCE043400700D17F1C81
:1039B000641CA4B2B088A042D2D83079400700D0AD
:1039C0007F1C6D1CADB2F088A842C7D8BDE8F09F3F
:1039D000A00200204465627567203A205061696E3C
:1039E000745F447261774368617220496E707574C8
:1039F000206578636565647320746865206E6F72F6
:103A00006D616C20646973706C61792072616E679E
:103A1000650D0A002DE9FF4F8046834885B00F46AB
:103A200084881299444502D3C088B84205D809B0A9
:103A30007E48BDE8F04F01F0F3BB03200024A0EB6B
:103A4000420015B20FFA80FA01297AD0E9E0264641
:103A500061E000BF4FF0010908EB040007EB060B23
:103A600002901FFA8BF1CDF8009080B24B46089A75
:103A700000F092F9A8EB040004901FFA8BF1CDF846
:103A8000009080B20123089A00F086F93819CDE938
:103A9000009081B2A8EB060B1FFA8BF00123089A65
:103AA00000F07AF9381B039081B2CDF800901FFA2C
:103AB0008BF00123089A00F06FF90498A7EB060B2E
:103AC0001FFA8BF1CDF8009080B20123089A00F024
:103AD00063F902981FFA8BF1CDF8009080B20123B0
:103AE000089A00F059F9039808EB060B81B2CDF85B
:103AF00000901FFA8BF00123089A00F04DF901980D
:103B0000CDF8009081B21FFA8BF00123089A00F0E3
:103B100043F9761C36B2AE429CDDBAF1000F06DAEC
:103B20000AEB8400801D0FFA80FA08E009E0611BAF
:103B30000AEB81000A306D1E0FFA80FA2DB2641C68
:103B400024B2AC4283DD09B0BDE8F08F08EB04007D
:103B5000012607EB050902901FFA89F1009680B251
:103B6000139B089A00F018F9A8EB040003901FFAC1
:103B700089F1009680B2139B089A00F00DF938196C
:103B8000CDE9006081B2A8EB05091FFA89F0139B0B
:103B9000089A00F001F9A7EB040B1FFA8BF11FFA4A
:103BA00089F00096139B089A00F0F6F80398A7EBAB
:103BB00005091FFA89F1009680B2139B089A00F05C
:103BC000EBF802981FFA89F1009680B2139B089ACD
:103BD00000F0E2F808EB05091FFA8BF11FFA89F0F3
:103BE0000096139B089A00F0D7F80198009681B2CE
:103BF0001FFA89F0139B089A00F0CEF8BAF1000F73
:103C000005DA0AEB8400801D0FFA80FA07E0611BD9
:103C10000AEB81000A306D1E0FFA80FA2DB2641C87
:103C200024B2AC4292DD8EE7A002002004E708082F
:103C30002DE9FF5F1E46894600244FF4487ADDF8DF
:103C400038801BE0029800250719009904FB06F054
:103C500001EB400B0FE000BF09EB0500504509DA0E
:103C6000B7F5F07F06DA0BEB450180B20A88B9B2EE
:103C700000F09CFA6D1CB542EEDB641C4445E1DBB0
:103C8000BDE8FF9F2DE9FE4F1646324A1D46938838
:103C9000834208D3D3888B4205D39388B34202D39F
:103CA000D288AA4204D2BDE8FE4F2BA001F0B8BAD8
:103CB00083468A46321A00D5821B91466A1A002A28
:103CC00000DD4A1B90464FF0FF32B34501D2012080
:103CD00000E010460290AA4500D2012209EB080438
:103CE000002701927F1C0D98FFB2012805D1032007
:103CF000B7FBF0F100FB1170F8B1012000905146C4
:103D000058460E9B0C9A00F047F800BFB8EB440FE2
:103D100007DCB3451CD0029944440BEB01001FFAA9
:103D200080FBB9EB440FDDDBAA4511D001994C446F
:103D30000AEB01001FFA80FAD4E7012000904FF649
:103D4000FF72514658460E9B00F026F80027DDE72B
:103D5000BDE8FE8FA00200204465627567203A200E
:103D60005061696E745F447261774C696E65204979
:103D70006E7075742065786365656473207468651A
:103D8000206E6F726D616C20646973706C61792054
:103D900072616E67650D0A002DE9F05F8146244867
:103DA0001C46884683880A9993464B4527D3C28888
:103DB000424524D3012901D0002635E00025681EA4
:103DC00000EB440719E009EB05000026A0EB040A0C
:103DD0000FE000BFBAF1000F0DD408EB0600001B86
:103DE00009D481B21FFA8AF05A4600F0DFF9761C36
:103DF00036B2B742EEDC6D1C2DB2AF42E3DCBDE85B
:103E0000F09F002509EB06077F1E09E008EB05007F
:103E1000401E81B2B8B25A4600F0C8F96D1C2DB2EE
:103E2000A542F3DB761C36B2A642EADBE7E70000E8
:103E3000A00200202DE9FE4F824628480C461F466E
:103E4000DDE90D1583880C9E9146534509D3C28840
:103E5000A24206D383884A464B4502D3C088B84263
:103E600004D2BDE8FE4F1EA001F0DAB90020804662
:103E700059B90EE00096CDE9018523464A46194618
:103E80005046FFF7FFFE641CA4B2BC42F2D3BDE86B
:103E9000FE8F0096CDE90185234619465046FFF76F
:103EA000F1FE0096CDE9018552463B46214610467B
:103EB000FFF7E8FE0096CDE901854A4623463946DC
:103EC0001046FFF7DFFE0096CDE901853B465246DE
:103ED00019464846FFF7D6FED9E70000A0020020A9
:103EE0004465627567203A20496E70757420657864
:103EF000636565647320746865206E6F726D616CB4
:103F000020646973706C61792072616E67650D0A57
:103F1000000000002DE9F05F1D46904606468A46E7
:103F2000DDF828B0B9E07F294FF0000056D8AA8804
:103F30004EE053232C68434314F813308B4246D190
:103F400053214843022101EB400004EB0009002704
:103F500039E000242EE000BFABF57F40FF384FEA88
:103F6000E47004EB507020F00700A4EB000299F815
:103F700000104FF0800020FA02F001EA000101D0A9
:103F800009B907E071B10AEB070081B2301980B2BC
:103F90000B9A05E00AEB070081B2301980B25A464D
:103FA00000F004F9404804EA0001072901D109F1B1
:103FB0000109641C2889A042CEDC287A400701D080
:103FC00009F101097F1C6889B842C2DC02E0401C8B
:103FD0008242AEDC08F10108E8885DE00127AA888A
:103FE00055E053232C68434314F813C08C454DD13E
:103FF00007EB4303E45C98F801309C4246D153211F
:10400000484302212A6801EB400002EB0009002727
:1040100038E000242DE000BFABF57F40FF384FEAC9
:10402000E47004EB507020F00700A4EB000299F854
:1040300000104FF0800020FA02F001EA000101D0E8
:1040400009B907E071B10AEB070081B2301980B2FB
:104050000B9A05E00AEB070081B2301980B25A468C
:1040600000F0A4F810482040072801D109F1010907
:10407000641C2889A042CFDC287A400701D009F1CE
:1040800001097F1C6889B842C3DC02E0401C8242FF
:10409000A7DC288908F10208064498F800100029D6
:1040A0007FF441AFBDE8F09F070000802DE9FC5F81
:1040B00080461B4889460D468188DDF834B01E468F
:1040C00017464446A14203D3C1888246A94222D260
:1040D000BDE8FC5F134801F0A3B8B088BAF804301B
:1040E00001195046994203D9F188444629448DB2BA
:1040F000F188C0882944814201D944464D460C9933
:10410000CDE9001B334629462046FFF703FCB08863
:104110007F1C204484B23A78002ADED1BDE8FC9F9F
:10412000A0020020BCE608082DE9F0410F4C17461C
:104130000D46064620816181A3816082A182A28A08
:10414000618A0BA001F06CF80F2112A001F068F851
:10415000E781002020822FB1B42F03D0A580E68014
:10416000BDE8F081A680E580FAE70000A00200200B
:10417000576964746842797465203D2025642C2059
:1041800048656967687442797465203D2025640D2F
:104190000A000000204550445F5749445448202FEE
:1041A0002038203D2025640D0A00000030B404466C
:1041B00024488388A3423AD3C3888B4237D3C38928
:1041C000E3B15A2B1CD0B42B20D0B3F5877F36D166
:1041D0000B464189091B491E89B2048A0CB3012C84
:1041E0001BD0022C05D0032C29D10489E31A5B1EB5
:1041F0009BB24489611A491E89B212E02346ECE75A
:104200000389591A491E8BB22146E6E703891B1B15
:104210005B1E44899BB2611ADDE70489E31A5B1EC9
:104220009BB204899C4202D34089884203D230BCAD
:1042300005A000F0F5BF30BC1846FCF7A1B830BCB3
:1042400070470000A00200204465627567203A2094
:10425000457863656564696E6720646973706C6135
:104260007920626F756E6461726965730D0A000072
:1042700070470A6842624A688262D1E902231A439F
:10428000D1E904310B43C16A1A4321F0F70111430C
:10429000C16200207047006800F0030070470844C6
:1042A000406970470148FEF725B9000084090020E5
:1042B00070B50DF1100C11439CE8700023431943B5
:1042C00029434268314347F6FF639A430A434260F9
:1042D000002070BD10B5032101600220FCF7BCFF77
:1042E000002010BDD0F8800070470A688260D1E9D4
:1042F00001231A43D1E903310B43C1681A436FF319
:104300000B011143C160002070470968C0F880109C
:104310000020704710B586B004463720CDE9001064
:1043200040200290002003904FF480600490694682
:104330002046FFF7DAFF41F288323721204600F0AD
:10434000BDF906B010BD000010B504460A4886B09D
:1043500001432920CDE90010402002900020039065
:104360004FF48060049069462046FFF7BEFF204668
:1043700000F05CFA06B010BD0000108010B586B0E9
:1043800004461020CDE90010402002900020039048
:104390004FF48060049069462046FFF7A6FF41F283
:1043A00088321021204600F089F906B010BD10B502
:1043B00086B004460620CDE900104020029000207F
:1043C00003904FF48060049069462046FFF78DFF0C
:1043D00041F288320621204600F070F906B010BD87
:1043E00030B585B000240546009401944FF48060F8
:1043F0000294CDE9034069462846FFF776FF0B4853
:104400004FF4FA510068B0FBF1F041F288314843B3
:10441000401E03D24FF0004005B030BD696B090665
:10442000F6D5C520A8632046F6E700004C00002022
:1044300070B585B004464FF4D570009001A90820EE
:104440004025002681E86100C001049069462046AD
:10445000FFF74BFF12484FF4FA510068B0FBF1F040
:1044600041F288314843401E03D24FF0004005B06E
:1044700070BD616B11F0450FF5D00905F3D4606B89
:10448000400701D5042003E0606BC00702D0012083
:10449000A063ECE7606B400600D5A5633046E6E715
:1044A0004C00002010B586B004461220CDE9001063
:1044B00040200290002003904FF4806004906946F1
:1044C0002046FFF712FF41F288321221204600F009
:1044D000F5F806B010BD10B586B004461120CDE940
:1044E000001040200290002003904FF48060049060
:1044F00069462046FFF7F9FE41F288321121204635
:1045000000F0DCF806B010BD10B586B004460720F8
:10451000CDE9002040200290002003904FF48060FD
:10452000049069462046FFF7E0FE41F288320721F9
:10453000204600F0C3F806B010BD10B586B00446A2
:1045400000210220CDE90010C020CDE902014FF486
:104550008060049069462046FFF7C7FE204600F0C1
:104560003DF906B010BD10B586B004460920CDE96E
:104570000010C0200290002003904FF4806004904F
:1045800069462046FFF7B1FE204600F027F906B045
:1045900010BD10B586B0044600213320CDE90010CF
:1045A0004020CDE902010001049069462046FFF752
:1045B0009CFE41F288323321204600F07FF806B09D
:1045C00010BD10B586B004460D20CDE90010402086
:1045D0000290002003904FF48060049069462046CA
:1045E000FFF783FE41F288320D21204600F066F885
:1045F00006B010BD30B585B00C460546002103203D
:10460000CDE900104020CDE9020100010490694687
:104610002846FFF76AFE22460321284600F028F9C3
:1046200005B030BD10B586B0044600210C20CDE9A0
:1046300000104020CDE902010001049069462046A7
:10464000FFF753FE034A0C21204600F037F806B06E
:1046500010BD000000E1F50510B586B00446192034
:10466000CDE9001040200290002003904FF48060BC
:10467000049069462046FFF738FE41F2883219213E
:10468000204600F01BF806B010BD10B586B00446F9
:104690001820CDE9001040200290002003904FF434
:1046A0008060049069462046FFF71FFE41F2883281
:1046B0001821204600F002F806B010BD454B10B599
:1046C0001B684FF4FA54B3FBF4F353435B1E02D25E
:1046D0004FF0004010BD426B12F0450FF6D01205AE
:1046E000F4D4426B520703D504218163084610BD00
:1046F000426BD20702D00121816305E0C5228263AB
:104700000269D2B28A4201D0012010BD0021FFF718
:10471000C6FD3149084201D1002010BD002802DA4F
:104720004FF0007010BD410001D5402010BD810048
:1047300001D5802010BDC10002D54FF4807010BD9E
:10474000010102D54FF4007010BD410102D54FF4B4
:10475000806010BDC10102D54FF4006010BD0102A0
:1047600002D54FF4805010BD410202D54FF40050E5
:1047700010BD810202D54FF4804010BDC10202D5A8
:104780004FF4004010BD410302D54FF4003010BD7E
:10479000810302D54FF4802010BDC10302D54FF430
:1047A000002010BD010402D54FF4801010BD41045B
:1047B00002D54FF4001010BD810402D54FF48000E3
:1047C00010BD000702D54FF4000010BD4FF480303B
:1047D00010BD00004C00002008E0FFFD12494FF41E
:1047E000FA520968B1FBF2F141F288325143491E95
:1047F00002D24FF000407047426B12F0450FF6D0E6
:104800001205F4D4416B490703D50421816308469E
:104810007047416BC90703D0012181630846704787
:10482000C5218163002070474C0000200F494FF4E0
:10483000FA520968B1FBF2F141F288325143491E44
:1048400002D24FF000407047426B12F0450FF6D095
:104850001205F4D4416B490703D50421816308464E
:104860007047C52181630020704700004C00002084
:1048700030B5204B4FF4FA541B68B3FBF4F341F20C
:10488000883463435B1E02D24FF0004030BD446B5E
:1048900014F0450FF6D02405F4D4436B5B0703D521
:1048A00004218163084630BD436BDB0702D0012140
:1048B000816303E00369DBB28B4201D0012030BD8C
:1048C000C52181630021FFF7EAFC10F4604F04D09A
:1048D000410406D54FF4005030BD000C108000207C
:1048E00030BD000402D54FF4805030BD4FF480300D
:1048F00030BD00004C00002010B5064C0120207097
:10490000FBF788FE18B9207820F00100207020788D
:1049100010BD00001C00002010B5846B40F23A501E
:10492000216888632046FDF7CFFD012184F834100B
:1049300000212163062801D0052805D12068FFF752
:1049400071FEA16B0843A063A06B0028204602D033
:10495000FDF7DAFC10BDFDF759FC10BD10B5846BF6
:1049600040F23A50216888632046FDF7ADFD0121F1
:1049700084F8341000212163062801D0052805D1D0
:104980002068FFF74FFEA16B0843A063A06B0028CF
:10499000204602D0FDF7B8FC10BDFDF737FC10BD76
:1049A0002DE9F04F89B00D460446FCF7DBFD0026EB
:1049B000834600960196374608212068FFF7DEFC03
:1049C000002834D1B4F8500001042068FFF7A2FC9D
:1049D00000282CD1401E4FF00808CDE902083020F5
:1049E0004FF00209CDE904090120CDE9067002A9C2
:1049F0002068FFF73EFC2068FFF7CBFD002816D1AA
:104A0000EA4640F22A472068416B394212D1416B95
:104A1000890204D5FFF766FC4AF82600761CFCF7ED
:104A2000A1FDA0EB0B00401CEDD14FF0004009B000
:104A3000BDE8F08F416B090703D5C0F83880082026
:104A4000F5E7416B890703D5C0F838900220EEE7FF
:104A5000416B890603D5202181630846E7E740F2D0
:104A60003A518163019800BA2860009800BA6860E2
:104A70000020DCE710B590B004460120ADF8380006
:104A80002068FFF708FC002854D0606C032842D04F
:104A90002068FFF752FD00284AD100212068FFF767
:104AA000FEFB606704212068FFF7F9FBA06708217F
:104AB0002068FFF7F4FBE0670C212068FFF7EFFBAD
:104AC000C4F88000606C032825D00EA92068FFF789
:104AD00091FD00282CD1606C03281CD0BDF8380053
:104AE000206501042068FFF73EFD002820D1002149
:104AF0002068FFF7D4FB606604212068FFF7CFFB36
:104B0000A06608212068FFF7CAFBE0660C21206838
:104B1000FFF7C5FB206704212068FFF7C0FB000DED
:104B2000E06403A92046FDF7F1FB30B14FF080505F
:104B300010B010BD4FF08060FAE7B4F850000023C9
:104B400002042068FFF7E0FC0028F1D104F1100016
:104B500007C88DE8070094E80F00FFF7A9FB0020C5
:104B6000E6E700002DE9F84F00260446009635469A
:104B7000B0460068FFF734FC002827D12068FFF713
:104B800057FC4FF0805B4FF001094FF6FF7748B1BB
:104B9000A6642068FFF724FC002817D1A06C012828
:104BA00002D020E0C4F8489000212068FFF7B2FB53
:104BB00058B918E000212068FFF7ACFB002805D1A8
:104BC00051462068FFF7C0FB10B15846BDE8F88F8A
:104BD00000212068FFF763FB05464FEAD078009874
:104BE000401C009002E0DFF82CA00098B84202D2EE
:104BF000B8F1000FDED00098B84202D34FF08070B9
:104C0000E4E7680002D5C4F8449000E06664002040
:104C1000DCE70000000010C170B5064C054601201D
:104C20002070FBF703FD18B92846FFF765FE2070DA
:104C3000207870BD1C00002010B5124888B01446C2
:104C40000078C00702D0032008B010BDC1B101290F
:104C500005D0022908D003290CD00420F4E76846C7
:104C6000FBF7D2FC06980AE06846FBF7CDFC0798F4
:104C7000208005E06846FBF7C7FC0798400A2060E3
:104C80000020E1E71C00002070B51D4616460846CE
:104C90000124A31E2A463146FBF7E2FC28B900BFD7
:104CA000FBF7B8FC0028FBD10024204670BDFFF7BD
:104CB00023BE000070B51D46164608460124A31EFB
:104CC0002A463146FBF7DEFC28B900BFFBF7A2FC01
:104CD0000028FBD10024204670BD7047FCF748BC7B
:104CE00070B59EB030216846FBF7C6FA142118A8AB
:104CF000FBF7C2FA30210CA8FBF7BEFA1F480025CB
:104D0000016841F080510160006800F080501D9002
:104D10001B48016841F4404101600068022400F42E
:104D200040401D9001200090000401908001CDE9D9
:104D300006401920089009A94FF4B470082681E8AC
:104D400051006846FDF768F8FCF718FE18A90F2017
:104D500081E831004FF4A0501B90E0021C90052127
:104D600018A8FCF76DFF9820159510900C961294DA
:104D70000CA8FCF73BFE1EB070BD0000403802409E
:104D8000007000400548016841F47001016003496A
:104D90004FF00060803908607047000088ED00E047
:104DA00010B50A4C2068C068C043C00709D1084844
:104DB0000069804721680020486221686420C86239
:104DC000E06021686FF00100086110BD00B40220AE
:104DD0004C010020F0B50268254C264D264E274F89
:104DE000274B4FF0804CA04209D0604507D0A84225
:104DF00005D0B04203D0B84201D0984204D122F08D
:104E0000700E4A6842EA0E02A0421BD0604519D0DB
:104E1000A84217D0B04215D0B84213D0984211D052
:104E2000184DA8420ED0184DA8420BD0174DA842DD
:104E300008D0174DA84205D0164DA84202D0164DF5
:104E4000A84203D122F44075CA682A434D6922F072
:104E500080022A4302608A68C2620A688262A042B3
:104E600001D0984201D10969016301214161F0BD7E
:104E7000000001400004004000080040000C004019
:104E8000000401400040014000440140004801404E
:104E900000180040001C004000200040F8B5064605
:104EA00010480D460024016841F0040101600068CB
:104EB000032200F00400009011461E20FCF72CFD98
:104EC0001E20FCF71BFD094A07481060C2E9015487
:104ED000C2E903641046FDF7F7FEBDE8F840034859
:104EE000FDF70EBF403802400008004000B4022029
:104EF00010B5806B0021C185C184FDF712FF10BD84
:104F00000168CA6822F49072CA6001684A6922F096
:104F100001024A61202180F83A10704710B590F8DC
:104F20003A10222901D0022010BD8168B1F5805FBE
:104F300011D00169002901681FD0496801F07F0381
:104F4000816A4A1C82620B70C18D491E0904090CDA
:104F5000C18518D02BE00269816A002A0268526874
:104F600005D0D2B20A80816A491C8162ECE7C2F3A3
:104F700008020A80816A891CF7E74A68816A4B1C2B
:104F800083620A70E0E70168CA6822F02002CA6002
:104F90000168CA6822F48072CA6001684A6922F016
:104FA00001024A61202180F83A10FEF714F800202F
:104FB00010BD00002DE9F041044600680169E26877
:104FC00021F44051114301612169A068E26908435D
:104FD0006169114308432168CA6849F20C639A4326
:104FE0000243CA6020684169A26921F440711143FB
:104FF0004161E069192764253226B0F5004F354A32
:10500000354920684FF0000806D0884201D0904210
:1050100036D1FCF7BFFE35E0884201D0904202D184
:10502000FCF7B8FE01E0FCF7A5FE61684A18A0FB9A
:10503000070148EB0803FBF7D5F80146B0FBF5F094
:105040000201B1FBF5F06FF01803584301EB80004B
:1050500006EBC000B0FBF5F000F0F80002EB4002F8
:10506000B1FBF5F0584301EB800006EBC000B0FB4C
:10507000F5F000F00700216810448860BDE8F08179
:10508000FCF778FE61688B0F8A00A0FB0701FBF735
:10509000A9F80146B0FBF5F06FF01802504301EBA0
:1050A000800006EB0010B0FBF5F000F0F002B1FB61
:1050B000F5F002EB0012B1FBF5F06FF01803584366
:1050C00001EB800006EB0010B0FBF5F000F00F00E4
:1050D000D1E70000001401400010014090F83910A1
:1050E000212901D0022070478168B1F5805F016AF3
:1050F0000BD04A1C0262026809785160C18C491EBB
:105100000904090CC1840ED017E009880268C1F3B4
:105110000801516001690029016A02D0491C01623D
:10512000ECE7891CFBE70168CA6822F08002CA60CC
:105130000068C16841F04001C160002070472DE95E
:10514000F041984617460E460446069D1DE0681C31
:105150001BD02DB1FCF706FAA0EB0800A84214D929
:105160002068C16821F4D071C1602068416921F0D4
:1051700001014161202084F8390084F83A000020C0
:1051800084F838000320BDE8F0812068006836EA22
:10519000000004D00020B842D9D00020F3E701205D
:1051A000F9E70000F8B51A4C20680068C043800693
:1051B00021D44FF47A73012269462046FDF7ACFEF4
:1051C000144801880A0416D44B049DF800304FF0AF
:1051D000000204D50A2B0DD141F4004116E00D2B3D
:1051E00012D0C1F30D050C4E491C89B273550180D4
:1051F000C82900D902800648FDF794FD2068C168DF
:1052000041F02001C160F8BD41F480410180F2E726
:10521000C80A00203C000020080B0020FEE7000028
:105220000FB4054B10B503A9044A029800F028F802
:1052300010BC5DF814FB0000CD7700085802002078
:105240000907090E002804DB00F1E02080F80014B3
:10525000704700F00F0000F1E02080F8141D704747
:1052600002E008C8121F08C1002AFAD1704770472F
:10527000002001E001C1121F002AFBD1704700008D
:105280002DE9FF4F8DB00F460546002606E0252884
:105290000BD0DDE90F1290476D1C761C2878002892
:1052A000F5D111B03046BDE8F08F0024A246A146EA
:1052B0000122EC4900E0044315F8013F203B02FACB
:1052C00003F00842F7D128782A2810D06FF02F0277
:1052D0002878A0F13001092914D80AEB8A0102EBE1
:1052E000410144F0020400EB010A6D1CF0E701CF1C
:1052F0005FEA000A03D544F40054CAF1000A44F0FE
:1053000002046D1C28782E2817D115F8010F44F0DF
:1053100004042A280ED06FF02F022878A0F1300163
:1053200009290AD809EB890102EB410100EB0109C7
:105330006D1CF2E757F8049B6D1C28786C280FD081
:1053400006DC4C2817D068280DD06A2814D104E058
:10535000742810D07A280FD10DE044F400140AE02C
:1053600044F4801401E044F440146978814202D18D
:1053700004F580146D1C6D1C2A786E2A1FD00CDC7D
:10538000632A31D004DC002A8BD0582A11D1A3E043
:10539000642A68D0692A0CD165E0732A2ED004DC17
:1053A0006F2A73D0702A04D19BE0752A6FD0782AB7
:1053B0006ED01046DDE90F129047761C50E1C4F321
:1053C0000250022806D0032809D0042801CF09D0B2
:1053D000066045E101CFF117C0E9006140E101CF6E
:1053E00006803DE106703BE117F8040B8DF80000E4
:1053F00000208DF80100EB46012003E057F804BBC4
:105400004FF0FF3061074FF0000102D40DE008F1CA
:105410000101884649450FDA8045F8DB1BF8081082
:105420000029F4D108E008F1010188468142FADB45
:105430001BF808100029F6D1DDE90F23AAEB0800BC
:105440008146214600F036F9304400EB080604E0BE
:10545000DDE90F121BF8010B9047B8F10108F7D2F4
:1054600021464846F7E00A21C4F302534FF0000BEF
:105470000891022B04D001CFC117032B09D00AE0F9
:10548000FF1D27F00707F7E8020108E032E01FE000
:1054900020E000B2C117042B01D140B2C117031E96
:1054A00071F1000307DA4FF0000CD0EB0C006CEB4D
:1054B00001012D2302E0230504D52B238DF8243090
:1054C000012303E0E30701D02023F7E7984658E0E3
:1054D0000A2110E010210EE010204FF0000B089080
:1054E0000CE010214FF0000B44F004044FF00809C9
:1054F000089103E008214FF0000B0891C4F3025318
:10550000022B04D001CF0021032B06D006E0FF1DA3
:1055100027F00707F7E8020103E080B2042B00D16F
:10552000C0B24FF0000823072BD5702A07D0DDF852
:1055300020C08CF0100C5CEA0B0C05D00EE0402370
:105540008DF82430012308E050EA010306D030230F
:105550008DF824308DF8252002239846DDF820C0F0
:105560008CF0080C5CEA0B0C0BD150EA010301D162
:10557000630706D530238DF824304FF00108A9F1D8
:105580000109582A04D038A20B9208AA0A920BE00B
:105590003AA2F9E75B46089AFAF724FE0B9B9B5C5C
:1055A0000A9A521E0A92137050EA0102F2D10A9826
:1055B000ADEB000000F1200B600702D524F480342D
:1055C00001E04FF00109D94502DDA9EB0B0000E035
:1055D000002000EB0B0141440890AAEB010AE00314
:1055E00006D4DDE90F232146504600F063F8064457
:1055F0004FF0000908E009A911F80900DDE90F12D0
:10560000904709F10109761CC145F4DBE0030CD594
:10561000DDE90F232146504600F04CF8064404E033
:10562000DDE90F1230209047761C0899481E08903B
:105630000029F5DC08E00A980A990078491C0A91CB
:10564000DDE90F129047761CBBF10001ABF1010BB5
:10565000F1DC21465046DDE90F2300F019F806443D
:105660006D1C1BE6092801003031323334353637E2
:10567000383961626364656600000000303132339E
:10568000343536373839414243444546000000003E
:105690002DE9F041044600251E461746880404D42F
:1056A00005E039462020B0476D1C641EF9D5284618
:1056B000BDE8F0812DE9F041044600251E469046E4
:1056C000C80301D5302700E02027880404D505E071
:1056D00041463846B0476D1C641EF9D52846BDE8E2
:1056E000F0810000284890ED052AD0ED011A90EDD8
:1056F000041AB8EE420AF8EE610AB8EE413AC0EE7A
:10570000202AD0ED020AF8EE603A83EE230AF4EE86
:10571000C02AF1EE10FA01D2B0EE620A10EE101AB1
:10572000B1F17E5F01DDB7EE000AB8EE422AF8EE75
:10573000611AB8EE411AF8EE600A4FF6FF7100EEFA
:10574000612AD0ED061A00EE601AF8EE612AF6EE34
:10575000001A42EE212ABCEEE22A80ED062AD0EDA4
:10576000070AF8EE600A41EE210AFCEEE00AC0EDFD
:10577000070ADFED060A20EE200ABCEEC00A80ED23
:10578000030A0162416270476CB4022000000046C7
:10579000F0B4104CDDE90456B4F800C0CF186745EA
:1057A0000DD8B4F802C05719674508D83BB135B1D8
:1057B000C4E9045304F128031B691BB103E0F0BCE6
:1057C000292070470026C4E906123146F0BC02F0D9
:1057D00075BC00006CB40220C91C036F002221F0CC
:1057E00003018B4204D35A1A0267C26E1144C16688
:1057F000104670472DE9F0470546067BD5E90004C1
:10580000884621780027B946FEB960B1641C401E65
:10581000B9F1000F15D021784FF0000971B16FF088
:105820000500BDE8F087AC686B6F4FF480622146DD
:10583000284698470028EAD1801EF2E7FF21217010
:1058400002E02178FF290FD080267F00314200D06E
:105850007F1C7608A8F10108B8F1000FD4D12E738F
:10586000C5E900043846DCE74FF00109F4E7000021
:105870002DE9F04F5FF0000250F8404B4FF4B55C5B
:1058800050F8405B4FF4B5580768036CE619E41B09
:10589000EF1A2B4407FB0CF7C3EB2737F518A6EBE1
:1058A000030A07EB040BA4EB070950F860CC036E66
:1058B00050F8207CACEB0304066A9C44F31B3E4486
:1058C000ACEB060707FB08F74FEA27386644E718F2
:1058D00041F6905C07FB0CF741F2511C04FB0CF401
:1058E00042F6CF1C03FB0CF33F13A7EB233305EB6E
:1058F000060C9B1BAD1BA7EB243440F880CCA8EB17
:10590000030705660BEB030540F8605CABEB030394
:10591000036409EB070340F8403CE41BA9EB0703D1
:1059200003620AEB040340F8203CAAEB0403521C78
:1059300040F87C39082A9FD30023DFF818E120388B
:105940004FF4B55C50F8082B4FF4B55850F8085B8D
:1059500002F5004250F8104B50F8086C1719141B50
:10596000AA1B02FB0CF24FEA223C7219ACEB0205B7
:1059700005EB0409A4EB050ABE18A7EB020B50F8CF
:10598000045C50F81CCC50F80C2C50F8147CACEB98
:105990000504AC44D51B3A44ACEB020707FB08F7FF
:1059A0004FEA27386244671941F6905C07FB0CF711
:1059B00041F2511C04FB0CF43F1342F6CF1C05FBD3
:1059C0000CF5A7EB2535A7EB2434AD1AA8EB05079A
:1059D000A4EB070CB418C4F30928B21A1EF8088007
:1059E000C2F3092201F8078B1EF8022001F80629EC
:1059F00009EB0502C2F3092274461EF8022001F8E1
:105A0000012BA9EB0502C2F309221EF802200A713C
:105A10000AEB0702C2F30922A25C01F8022BAAEBEF
:105A20000702C2F30922A25C4A700BEB0C02C2F31C
:105A30000922A25C01F8012CABEB0C02C2F3092293
:105A40001EF802205B1C01F8042B082BFFF478AF32
:105A5000BDE8F08FBCE2080810B504460020E070F5
:105A6000401E2063204603F0EBF908B1042010BD6E
:105A700004F2322002F0A2FBA0F52A41553901D0F0
:105A8000032010BD94F83400E92805D0EB2814D188
:105A900094F83600902810D104F16A0002F083FBDC
:105AA0000749B1EB002F06D004F1860002F07BFB22
:105AB0000449884201D1002010BD022010BD000021
:105AC000004641544641543300E0401C02780AB17C
:105AD0008A42FAD1D0B27047F0B50022144D134675
